:020000040800F2
:1000000000400020490A0008990A0008990A0008DF
:1000100000000000000000000000000000000000E0
:10002000000000000000000000000000990A000825
:100030000000000000000000990A0008990A00086A
:10004000990A0008990A0008990A0008990A000804
:10005000990A0008990A0008990A0008990A0008F4
:10006000990A0008990A0008990A0008990A0008E4
:10007000990A0008990A0008990A0008990A0008D4
:10008000990A0008990A000800000000990A00086F
:10009000990A0008990A0008990A0008990A0008B4
:1000A000990A0008990A0008990A0008990A0008A4
:1000B000990A000800000000990A000800000000EA
:0400C0005FF808F1EC
:1000C40003B47146490840004900095A49008E4466
:1000D40003BC7047002243088B4274D303098B424C
:1000E4005FD3030A8B4244D3030B8B4228D3030C04
:1000F4008B420DD3FF22090212BA030C8B4202D3A6
:100104001212090265D0030B8B4219D300E0090ACD
:10011400C30B8B4201D3CB03C01A5241830B8B42D6
:1001240001D38B03C01A5241430B8B4201D34B03BF
:10013400C01A5241030B8B4201D30B03C01A524124
:10014400C30A8B4201D3CB02C01A5241830A8B42A9
:1001540001D38B02C01A5241430A8B4201D34B0292
:10016400C01A5241030A8B4201D30B02C01A5241F6
:10017400CDD2C3098B4201D3CB01C01A52418309AA
:100184008B4201D38B01C01A524143098B4201D3E4
:100194004B01C01A524103098B4201D30B01C01A0F
:1001A4005241C3088B4201D3CB00C01A5241830889
:1001B4008B4201D38B00C01A524143088B4201D3B6
:1001C4004B00C01A5241411A00D201465241104616
:1001D4007047FFE701B5002000F006F802BDC046F5
:1001E4000029F7D076E770477047C04610B500F095
:1001F40005F80400200000F005FAFBE710B53A4BBF
:100204003A4C012163613A4B0222A361394B2270BB
:10021400E36196235B002362374B6360374BA36033
:10022400374BE360374B2361374B18680143196040
:10023400196811424FD000225A600C325968114299
:100244004BD11021314A116010680F3901431160FC
:100254005A682F495A605A685A601A680A401A60E4
:100264005A682C490A405A60E022596892030A43AA
:100274005A608022196852040A431A608022920448
:10028400196811422BD003215A688A435A6002220A
:1002940059680A430C215A605A680A40082A20D136
:1002A40000F02AFC1C4B1D491868FFF713FFA369D3
:1002B4004343A361E3694343E36163694343636184
:1002C400236A58436368206220789847207800F0B6
:1002D4004BF8200010BDC046AAE7C046AEE7C046B2
:1002E400CEE7C046D8E7C046E093040004000020EF
:1002F400400D030010270000B1080008ED090008B4
:10030400110A00083D0A00080010024000200240C3
:10031400FFFFFFFEFFFFC0FF0000002000127A0075
:10032400F0B500281CD000230E4E002901D1100086
:10033400F0BD07250478ED1A2C410125D70BAA40FE
:100344002C405B192243DBB292B2072B03D9002362
:100354000139401989B2002FE7D0724092B2E4E724
:100364000200E4E755AAFFFF074B012806D1074A1C
:100374001A60074A5A600C229A607047054A1A604C
:10038400054A5A601C22F7E728000020FC3F0008B9
:10039400FE3F0008FC7F0008FE7F0008F7B5254BF0
:1003A4004D1EADB29D4230D800282ED014275143A3
:1003B400214BBC46CC18214BDA683A43DA606A0810
:1003C400520052181E4925005218019202000126BB
:1003D400196931431961577816783F0237432F80E2
:1003E400184FA91C0126DD6835400BD11F69B7439E
:1003F40066461F61DF68374209D06146DA681143F7
:10040400D96002E0013F002FECD1002011E0019EF1
:1004140002320D00B142DAD14378A21C0578248857
:100424001B022B439C42F0D1023014008A42F3D1C8
:100434000120FEBDFF030000001000080020024060
:1004440002100008E0930400F7B580201F4B204AF7
:1004540020495A60204A5A601A69024010D11F4943
:1004640002258968402701911421FF2614001C48A5
:100474003440019E10188002A64206D8012003E0F1
:1004840001390029E8D10020FEBDDC680C43DC60A2
:100494001C692C431C61586118690E4C384318615F
:1004A400012084466646D86830400AD11C6901326E
:1004B400AC431C61DC680C42D7D0DA681143D960C4
:1004C400E2E7013C002CEDD1DDE7C046002002400C
:1004D40023016745E0930400AB89EFCD2800002099
:1004E400040002008023024A11690B431361704720
:1004F40000200240F7B506001422330C0093214B70
:10050400019081B2D868204F02433C68DA6001222E
:1005140018691E4D104318612180D86810400CD111
:100524001D6995431D61DD68AC46142566462E425F
:1005340008D0DA681543DD6003E0013D002DECD1FD
:100544000020FEBD1D6978682A4301251A61009ABE
:1005540002800E4AD86828400AD11A69AA431A614F
:100564001422DD68154207D0D9680A43DA60E8E747
:10057400013A002AEED1E3E72088401A4342584169
:10058400C0B2DEE70020024028000020E09304000F
:10059400F7B500226B4668461A80174B841C1B680B
:1005A40001AE1968851D090C21801968134889B2A8
:1005B400318021881B182A80100099420AD8104BD8
:1005C400694608882188884205D333889A1A50429C
:1005D4005041C0B2FEBD9F1C1B88022128002B8005
:1005E400FFF79EFE6B4669461B88020002339BB2EE
:1005F4000B803B00E4E7C0462800002000F0FFF732
:1006040000100008F8B5934B05001878082800D9A5
:1006140019E1FFF755FD090016002F0044008F0073
:10062400B800D100E100F40005218B48EB6898473D
:10063400041E01D0002467E004218848AB68984771
:1006440062E0874E02213000EB689847041EF1D126
:100654003288844B9A42EDD1FFF7F6FE002804D08D
:100664000222814B1A70814B00E0814B33800221BE
:100674003000E3E77A4E02213000EB689847041E0D
:10068400D8D132887B4B9A42D4D10322764B1A704C
:10069400714B043A0233DA87774B1880E3E76E4EE6
:1006A4004421EB6830009847B31CDA8F724B040086
:1006B4001B886D49934205D1002803D104230B7094
:1006C4006E4B1860331DDB8F6D4883421CD19A42F8
:1006D4001AD13378042B17D17378FB2B14D1674AC2
:1006E400286A136898420DD20122664B52421A803E
:1006F4005A8005230B702B69984759485B4B02219C
:1007040003809BE701331360524B57491A780878EA
:100714005D4B904200D09AE01A68686901321A6011
:10072400824202D900220A701A600B78494A2000DA
:100734001370F8BD484C002240212000FFF7F0FD63
:10074400231DDB8F464E83421AD14B4F40213A88FA
:100754002000FFF723FE002804D0444B33803B885D
:1007640001333B800322404B02211A7001233000E5
:10077400A21C5B420434D387E387AB68984759E7EC
:100784003B4B3380EEE73F4F04213800EB6898473A
:10079400041EB9D1364B324E788833803B8800042E
:1007A4001843FFF7A7FE002800D160E706222E4B6E
:1007B4001A702B69984756E7294E02213000EB68DE
:1007C4009847041EA0D13288304B9A4200D031E7BA
:1007D4000722254B1A7097E72D4B214C2380FFF7F6
:1007E400D7FE214B002806D0204A228008221A7006
:1007F40002212000C1E7274A18702280F8E71F4B26
:10080400EA691A60C0461A68511E1960002AF9D1B3
:10081400FFF768FE204B21491A002148181810CB15
:1008240004608B42F9D101231E49886903438B611B
:1008340003231D49086803430B60136883F3088886
:1008440053689847F6E60024074B1C705CE70022C7
:100854006AE7C046810000203A000020A40B00088B
:100864003800002001FE000080000020F30C00008E
:10087400F40B000002FD00007E0000208800002030
:10088400FFFF0000340000208400002005FA00006F
:10089400F20D0000F50A000000100008C010000866
:1008A40000F0FF170010024000000140802370B5E3
:1008B4000226434A9B025169424D0B43536142490C
:1008C400424C434B2E60012800D074E0801908602C
:1008D400E121090221609021C90519609023DB05FB
:1008E400196A3C480425014019628021186A4900AC
:1008F40001431962196A3848014019628021186A53
:1009040049010143196230219868884398609868C6
:10091400084398605868A843586058685860186835
:100924008843186020201D6828431860D86808256B
:100934008843D860D86820390143D960C0219868B9
:10094400884398609868084398605868A84358603A
:100954005868586018688843186080201D682843C8
:100964001860D8688843D860D86880390143D96052
:1009740080239169DB010B439361184B216818684C
:10098400192389005843FFF7A5FB64210500FFF7ED
:1009940027FC080132306421FFF79CFB0F246421FB
:1009A40004402800FFF796FB0D220D4B0001044381
:1009B400DC601A6070BD032008600A498AE7C046FB
:1009C4000010024094000020900000208C000020C1
:1009D4009C000020FFF0FFFFFF0FFFFF000000203E
:1009E40000380140882A110030B500238025064ACA
:1009F4009CB2A14201D830BDC046D4692C42FBD080
:100A0400C45C01331485F3E70038014010B5084C89
:100A1400084BE269920604D51A88A48C84540132E6
:100A24001A801A8801208A4201D30020188010BD40
:100A340000380140980000200022014B1A807047C2
:100A4400980000200D488546002103E00C4B5B58BC
:100A5400435004310B480C4B42189A42F6D30B4ACC
:100A640002E0002313600432094B9A42F9D300F0E8
:100A740013F800F071F8FFF7B9FBFEE7004000201F
:100A8400D40B000800000020040000200400002013
:100A9400A0000020FEE700000121114B11481A6854
:100AA4000A431A605A6802405A601A680E480240A3
:100AB4001A601A680D4802401A605A680C480240CD
:100AC4000F205A60DA6A8243DA621A6B09480240DC
:100AD4001A635A6B8A435A6300229A607047C0466D
:100AE400001002400CB8FF08FFFFF6FEFFFFFBFFFB
:100AF400FFFFC0FFECFEFFFF0C2270B5114D124E3C
:100B04006B681340082B0AD0104B33606B68104A93
:100B14001B061B0FD35C3268DA40326070BD0F23B2
:100B24006C686A68A40C1C400234E96AD20307D5D5
:100B3400194001310548FFF7CDFA44433460E5E735
:100B44000448FAE7001002400000002000127A0076
:100B5400AA0B000800093D0070B50D4E0D4DAD1BEC
:100B6400AD1006D00024A300F35801349847A542E1
:100B7400F9D100F021F8084E084DAD1BAD1006D098
:100B84000024A300F35801349847A542F9D170BD5D
:100B94000000000000000000000000000000000051
:100BA40048656C6C6F00000000000000000001024A
:100BB4000304060708090000F8B5C046F8BC08BCE1
:100BC4009E467047F8B5C046F8BC08BC9E467047C0
:040BD40000127A0091
:0400000508000A499C
:00000001FF
