:020000040800F2
:1000000000400020B50A0008050B0008050B000899
:1000100000000000000000000000000000000000E0
:10002000000000000000000000000000050B0008B8
:100030000000000000000000050B0008050B000890
:10004000050B0008050B0008050B0008050B000850
:10005000050B0008050B0008050B0008050B000840
:10006000050B0008050B0008050B0008050B000830
:10007000050B0008050B0008050B0008050B000820
:10008000050B0008050B000800000000050B000828
:10009000050B0008050B0008050B0008050B000800
:1000A000050B0008050B0008050B0008050B0008F0
:1000B000050B000800000000050B00080000000010
:0400C0005FF808F1EC
:1000C40003B47146490840004900095A49008E4466
:1000D40003BC7047002243088B4274D303098B424C
:1000E4005FD3030A8B4244D3030B8B4228D3030C04
:1000F4008B420DD3FF22090212BA030C8B4202D3A6
:100104001212090265D0030B8B4219D300E0090ACD
:10011400C30B8B4201D3CB03C01A5241830B8B42D6
:1001240001D38B03C01A5241430B8B4201D34B03BF
:10013400C01A5241030B8B4201D30B03C01A524124
:10014400C30A8B4201D3CB02C01A5241830A8B42A9
:1001540001D38B02C01A5241430A8B4201D34B0292
:10016400C01A5241030A8B4201D30B02C01A5241F6
:10017400CDD2C3098B4201D3CB01C01A52418309AA
:100184008B4201D38B01C01A524143098B4201D3E4
:100194004B01C01A524103098B4201D30B01C01A0F
:1001A4005241C3088B4201D3CB00C01A5241830889
:1001B4008B4201D38B00C01A524143088B4201D3B6
:1001C4004B00C01A5241411A00D201465241104616
:1001D4007047FFE701B5002000F006F802BDC046F5
:1001E4000029F7D076E770477047C04610B500F095
:1001F40005F80400200000F007FBFBE710B5184BDE
:10020400184C6361184BA361184BE36196235B00A0
:100214002362293BFF3B2370154B6360154BE3605E
:10022400154BA360154B236100F09CFC144B15493E
:100234001868FFF74FFFA3694343A361E36943438E
:10024400E361636943436361236A584363682062DB
:1002540020789847207800F089F9200010BDC04626
:10026400E093040004000020400D03001027000068
:100274008D02000889040008C90300081D05000850
:100284000000002000127A008023444A9B02516936
:1002940030B50B4353619023DB05596A4048414C08
:1002A400014059628021586AC90201435962596A5E
:1002B4003D48014059628021586AC901014359628D
:1002C400996821409960C021986889040143996024
:1002D4005968364801405960596859601968214085
:1002E400196080211868890408431860D868204080
:1002F400D860D8682E4CD860986820409860C02098
:100304009D6800042843986058682A4D2840586026
:100314005868586018682040186080201D680004E0
:1003240028431860D8682040D860D868D860D3695A
:100334001943D1610122204B1968114319601F49E7
:100344005868104226D0022118688725884318600F
:100354008C208003D861802080001C58AD00144399
:100364001C505C5914435C519024154DA4001D513C
:100374001C5894431C5058690143596119689143AE
:10038400196001210D4A5868084206D0013A002A32
:10039400F9D102E001390029D2D130BD0010024068
:1003A400FFFFF0FFFFFFFFFCFF0FFFFFFFEFFFFF6B
:1003B400FFFF3FFFFFF7FFFF00640040E0930400EE
:1003C400000170FF0023F0B587B00390C808002235
:1003D4000724049205920C40904202D0082401386C
:1003E40080B2002295B202955D19ADB2AC46A2422C
:1003F40033D18025214C224BED049E682E4233D00C
:10040400049C0F270194C424019D64001D51059C84
:100414000194C624019D64001D51C02580246D00F3
:1004240064045C51C22464001E59BE431E511E590B
:1004340032431A5101225C5914435C510F4C104D44
:10044400AD68154215D09C6822439A60029BC91A74
:1004540089B263460029BAD109E06646039DAD5DC1
:1004640004AEB5540132BDE7013C002CC5D107B040
:10047400F0BD013C002CE2D1F9E7C046E093040052
:1004840000640040F0B5224B85B0DA6805000191A4
:100494000120920736D0DC2252009A580292DE22C2
:1004A40052009A580392D822520098589A584107F9
:1004B40018D4520D082A13D1AD32FF329C58A63AF3
:1004C400FF3A14400220082C18D8002701213800D4
:1004D4008C46104E3288A04206D1002F00D03280C4
:1004E40001200BE0D208E5E702A90F5C0199AF54A3
:1004F400013292B28A4207D3002030802022D96888
:100504000A43DA6005B0F0BD01306746E3E7C04650
:1005140000640040280000200022014B1A8070472C
:1005240028000020F0B500281CD000230E4E00291E
:1005340001D11000F0BD07250478ED1A2C410125E6
:10054400D70BAA402C405B192243DBB292B2072B93
:1005540003D900230139401989B2002FE7D0724032
:1005640092B2E4E70200E4E755AAFFFF074B012833
:1005740006D1074A1A60074A5A600C229A607047EB
:10058400054A1A60054A5A601C22F7E72C0000202D
:10059400FC3F0008FE3F0008FC7F0008FE7F0008C7
:1005A400F7B5254B4D1EADB29D4230D800282ED054
:1005B40014275143214BBC46CC18214BDA683A43EB
:1005C400DA606A08520052181E4925005218019236
:1005D40002000126196931431961577816783F02E0
:1005E40037432F80184FA91C0126DD6835400BD1F5
:1005F4001F69B74366461F61DF68374209D0614609
:10060400DA681143D96002E0013F002FECD10020E9
:1006140011E0019E02320D00B142DAD14378A21CEE
:10062400057824881B022B439C42F0D1023014002D
:100634008A42F3D10120FEBDFF0300000010000830
:100644000020024002100008E0930400F7B5802067
:100654001F4B204A20495A60204A5A601A690240B6
:1006640010D11F4902258968402701911421FF26D2
:1006740014001C483440019E10188002A64206D87B
:10068400012003E001390029E8D10020FEBDDC6827
:100694000C43DC601C692C431C61586118690E4CC6
:1006A40038431861012084466646D86830400AD130
:1006B4001C690132AC431C61DC680C42D7D0DA6897
:1006C4001143D960E2E7013C002CEDD1DDE7C046DF
:1006D4000020024023016745E0930400AB89EFCD7D
:1006E4002C000020040002008023024A11690B43FD
:1006F4001361704700200240F7B506001422330C42
:100704000093214B019081B2D868204F02433C688A
:10071400DA60012218691E4D104318612180D868DF
:1007240010400CD11D6995431D61DD68AC4614254C
:1007340066462E4208D0DA681543DD6003E0013DC9
:10074400002DECD10020FEBD1D6978682A430125E7
:100754001A61009A02800E4AD86828400AD11A69A0
:10076400AA431A611422DD68154207D0D9680A43E6
:10077400DA60E8E7013A002AEED1E3E72088401A7C
:1007840043425841C0B2DEE7002002402C00002062
:10079400E0930400F7B500226B4668461A80174BB5
:1007A400841C1B6801AE1968851D090C2180196819
:1007B400134889B2318021881B182A80100099427D
:1007C4000AD8104B694608882188884205D33388A3
:1007D4009A1A50425041C0B2FEBD9F1C1B88022190
:1007E40028002B80FFF79EFE6B4669461B8802009B
:1007F40002339BB20B803B00E4E7C0462C00002090
:1008040000F0FFF700100008F8B5934B05001878C6
:10081400082800D919E1FFF753FC090016002F003E
:1008240044008F00B800D100E100F40005218B489A
:10083400EB689847041E01D0002467E0042188482F
:10084400AB68984762E0874E02213000EB68984716
:10085400041EF1D13288844B9A42EDD1FFF7F6FEA3
:10086400002804D00222814B1A70814B00E0814B96
:10087400338002213000E3E77A4E02213000EB6836
:100884009847041ED8D132887B4B9A42D4D1032294
:10089400764B1A70714B043A0233DA87774B18801F
:1008A400E3E76E4E4421EB6830009847B31CDA8FBF
:1008B400724B04001B886D49934205D1002803D173
:1008C40004230B706E4B1860331DDB8F6D4883421D
:1008D4001CD19A421AD13378042B17D17378FB2B8D
:1008E40014D1674A286A136898420DD20122664BD4
:1008F40052421A805A8005230B702B699847594835
:100904005B4B022103809BE701331360524B574931
:100914001A7808785D4B904200D09AE01A686869AA
:1009240001321A60824202D900220A701A600B78DE
:10093400494A20001370F8BD484C00224021200091
:10094400FFF7F0FD231DDB8F464E83421AD14B4F38
:1009540040213A882000FFF723FE002804D0444BAE
:1009640033803B8801333B800322404B02211A70C1
:1009740001233000A21C5B420434D387E387AB68B5
:10098400984759E73B4B3380EEE73F4F042138004B
:10099400EB689847041EB9D1364B324E78883380C1
:1009A4003B8800041843FFF7A7FE002800D160E746
:1009B40006222E4B1A702B69984756E7294E0221BE
:1009C4003000EB689847041EA0D13288304B9A421D
:1009D40000D031E70722254B1A7097E72D4B214CA5
:1009E4002380FFF7D7FE214B002806D0204A22801F
:1009F40008221A7002212000C1E7274A18702280B9
:100A0400F8E71F4BEA691A60C0461A68511E19605C
:100A1400002AF9D1FFF768FE204B21491A0021482A
:100A2400181810CB04608B42F9D101231E49886940
:100A340003438B6103231D49086803430B60136858
:100A440083F3088853689847F6E60024074B1C7024
:100A54005CE700226AE7C046850000203E000020D3
:100A6400200C00083C00002001FE0000840000204F
:100A7400F30C0000F40B000002FD000082000020D3
:100A84008C000020FFFF00003800002088000020B8
:100A940005FA0000F20D0000F50A0000001000083D
:100AA400C010000800F0FF170010024000000140D1
:100AB4000D488546002103E00C4B5B58435004313C
:100AC4000B480C4B42189A42F6D30B4A02E000231F
:100AD40013600432094B9A42F9D300F013F800F082
:100AE40079F8FFF783FBFEE700400020500C000874
:100AF40000000020040000200400002090000020DA
:100B0400FEE700000121114B11481A680A431A60DC
:100B14005A6802405A601A680E4802401A601A68FD
:100B24000D4802401A605A680C4802400F205A606F
:100B3400DA6A8243DA621A6B094802401A635A6B12
:100B44008A435A6300229A607047C04600100240EC
:100B54000CB8FF08FFFFF6FEFFFFFBFFFFFFC0FF1F
:100B64002CFEFFFF0C2270B5154D164E6B6813401A
:100B7400082B0AD0144B33606B68144A1B061B0FF6
:100B8400D35C3268DA40326070BD0F206C686B68E9
:100B9400E96AC022A40C04400140802052021340A0
:100BA400023401314002834201D1074802E09342FA
:100BB400FBD10748FFF78EFA44433460DCE7C046B4
:100BC400001002400000002000127A00260C0008E9
:100BD400006CDC0270B50D4E0D4DAD1BAD1006D092
:100BE4000024A300F35801349847A542F9D100F03A
:100BF40021F8084E084DAD1BAD1006D00024A3000B
:100C0400F35801349847A542F9D170BD00000000A3
:100C140000000000000000000000000048656C6C4B
:100C24006F0000000000000000000102030406073A
:100C340008090000F8B5C046F8BC08BC9E467047D9
:0C0C4400F8B5C046F8BC08BC9E467047DE
:040C500000127A0014
:0400000508000AB530
:00000001FF
